:03000000020800F3
:0C080000787FE4F6D8FD75812C020847D3
:1008DB00EF01FFFFFFFF01000301000500EF01FF28
:1008EB00FFFFFF0100040201000800EF01FFFFFF03
:1008FB00FF0100040202000900EF01FFFFFFFF01EF
:10090B00000804010000012B003A00EF01FFFFFF7C
:0D091B00FF01000804020000012B003B005A
:100AF600160B0000000000000000000000000000CF
:0F0B0600000000000000000002080001012200B2
:100B1600D3EF9400EE940040147D6E7C00ED1D70C2
:0D0B2600011CED4C70F7EF1F70E61E80E320
:010B3300229F
:080B3400D2917F64FE120B1642
:0F0B3C00758CFE758A4875890175A882D28C2246
:03000B00020A5A8C
:100A5A00C0E0C0F0C0D0758CFE758A48E50AC3951F
:100A6A00215004C2908002D290050AE50A75F02846
:0B0A7A008485F00AD0D0D0F0D0E0322C
:100B4B0075985053890F758920758780758DFF7542
:070B5B008BFFC2ABD28E221A
:060AAF008B2A8A2B892C22
:100AB500E4FFEFC39D5018AB2AAA2BA92C8F827592
:0F0AC500830012088CF5993099FDC2990F80E3D8
:010AD40022FF
:0809B6007B017A0079007D0C41
:0609BE008B2A8A2B892C14
:1009C400E4FF7EC8EFC39D502720980FAC061EECB1
:1009D4006009EED3940150F17FFF22AB2AAA2BA920
:1009E4002C8F82758300E5991208B9C2980F80D4C0
:0209F4007F0082
:0109F60022DE
:100A85007BFF7A0879DB7D0C120AAF3098FD1209DD
:100A9500B6EF60037FFE22900009E0700A90000B1C
:090AA500E0B40A037F00227FFE89
:010AAE002225
:100928007524FF7525087526E87527FF752808754D
:1009380029F6BF0108AB24AA25A9268006AB27AA59
:1009480028A9297D0D120AAF3098FD1209B6EF606B
:10095800037FFE22900009E0700A90000BE0B40AC1
:06096800037F00227FFE68
:01096E002266
:10096F007524FF7525097526047527FF75280975E8
:10097F002916BF0108AB24AA25A9268006AB27AAF2
:10098F0028A9297D11120AAF3098FD7B017A0079D1
:10099F00007D101209BEEF60037FFE22900009E078
:0609AF007002FF227FFE32
:0109B500221F
:100AD500E522701C120B34E4F50A7521027FF47EC1
:100AE50001120B16752201C2917FC47E09120B16E5
:010AF50022DE
:100A2E00E52264017025120B34E4F50A7521057F69
:100A3E00F47E01120B16E4F522C29130A0067FACB3
:0C0A4E007E0D80047FC47E09120B16226E
:0D09F700D2A0120AD5120A2E120AD5C298FB
:100A0400120B4B120A858F23E52370F47F01120920
:100A1400288F23E52370E97F0112096F8F23E523D3
:0A0A240070DE120A2E120AD580D6E9
:10080C000209F7E493A3F8E493A34003F68001F202
:10081C0008DFF48029E493A3F85407240CC8C333ED
:10082C00C4540F4420C8834004F456800146F6DFBC
:10083C00E4800B0102040810204080900AF6E47E4C
:10084C00019360BCA3FF543F30E509541FFEE493B1
:10085C00A360010ECF54C025E060A840B8E493A378
:10086C00FAE493A3F8E493A3C8C582C8CAC583CAA3
:10087C00F0A3C8C582C8CAC583CADFE9DEE780BE5B
:010B150000DF
:10088C00BB010CE58229F582E5833AF583E0225021
:10089C0006E92582F8E622BBFE06E92582F8E2226B
:0D08AC00E58229F582E5833AF583E4932285
:1008B900F8BB010DE58229F582E5833AF583E8F075
:1008C900225006E92582C8F622BBFE05E92582C821
:0208D900F22209
:00000001FF
