:03000000020800F3
:0C080000787FE4F6D8FD75812E020847D1
:1009D200EF01FFFFFFFF01000301000500EF01FF30
:1009E200FFFFFF0100040201000800EF01FFFFFF0B
:1009F200FF0100040202000900EF01FFFFFFFF01F7
:100A0200000804010000012B003A00EF01FFFFFF84
:0D0A1200FF01000804020000012B003B0062
:100B6700160900000000000000000000000000005F
:080B7700000000000000000076
:100B4900D3EF9400EE940040147D6E7C00ED1D708F
:0D0B5900011CED4C70F7EF1F70E61E80E3ED
:010B6600226C
:0F0B9700758CFE758A4875890175A882D28C22EB
:03000B00020AA73F
:100AA700C0E0C0F0C0D0758CFE758A48E508C395D4
:100AB7001F5004C2918002D2910508E50875F028FD
:0B0AC7008485F008D0D0D0F0D0E032E1
:100B800075985053890F758920758780758DFF750D
:070B90008BFFC2ABD28E22E5
:060B23008B268A278928B9
:100B2900E4FFEFC39D5018AB26AA27A9288F827529
:0F0B3900830012088CF5993099FDC2990F80E363
:010B4800228A
:06090C007B017A00790076
:080912008B268A2789288D2914
:10091A00E4F52A752EE8752D80F52CF52BF52AE5D8
:10092A002AC39529503D209823782B74FF1208EE8C
:10093A00EC4D4E4F6016E4FFFEFDFCAB2EAA2DA92E
:10094A002CA82BC31208DB70DD7FFF22AB26AA2757
:10095A00A928852A82758300E5991208B9C29805E3
:05096A002A80BC7F00A3
:01096F002265
:100AFC007BFF7A0979D27D0C120B2312090CEF6063
:100B0C00037FFE22900009E0700A90000BE0640A5B
:060B1C007002FF227FFEC3
:010B220022B0
:100A1F007520FF7521097522DF7523FF7524097570
:100A2F0025EDEF64017008AB20AA21A9228006AB47
:100A3F0023AA24A9257D0D120B237D0C12090CEF7F
:100A4F0060037FFE22900009E0700A90000BE064C3
:070A5F000A7002FF227FFE76
:010A6600226D
:100A67007520FF7521097522FB7523FF75240A750B
:100A7700250DEF64017008AB20AA21A9228006ABDF
:100A870023AA24A9257D11120B237D1012090CEF2F
:0F0A970060037FFE22900009E07002FF227FFEC5
:010AA600222D
:100AD2007F647E00120B49120B97E4F508751F051F
:100AE2007FB87E0B120B49120B97E4F508751F02B3
:0A0AF2007FE87E03120B49C2902238
:10097000D290D2A0A2A0E433FBEB700E7FB87E0B26
:10098000120B4920A0F3C29080EFC298120B801284
:100990000AFCEF3395E04F70357F01120A1FEF33E9
:1009A00095E04F70257F01120A67EF3395E04F7095
:1009B00005120AD280D6C2907FFA7E00120B49D26D
:1009C000907FFA7E00120B4980ECC29080BEC290EC
:0209D00080BAEB
:10080C00020970E493A3F8E493A34003F68001F289
:10081C0008DFF48029E493A3F85407240CC8C333ED
:10082C00C4540F4420C8834004F456800146F6DFBC
:10083C00E4800B0102040810204080900B67E47EDA
:10084C00019360BCA3FF543F30E509541FFEE493B1
:10085C00A360010ECF54C025E060A840B8E493A378
:10086C00FAE493A3F8E493A3C8C582C8CAC583CAA3
:10087C00F0A3C8C582C8CAC583CADFE9DEE780BE5B
:010B7F000075
:10088C00BB010CE58229F582E5833AF583E0225021
:10089C0006E92582F8E622BBFE06E92582F8E2226B
:0D08AC00E58229F582E5833AF583E4932285
:1008B900F8BB010DE58229F582E5833AF583E8F075
:1008C900225006E92582C8F622BBFE05E92582C821
:0208D900F22209
:1008DB00EB9FF5F0EA9E42F0E99D42F0E89C45F073
:0108EB0022EA
:1008EC007401FF3395E0FEFDFC080808E6CF2FF6F7
:1008FC0018E6CE3EF618E6CD3DF618E6CC3CF622D0
:00000001FF
