:03000000020800F3
:0C080000787FE4F6D8FD75812D020847D2
:1008DB00EF01FFFFFFFF01000301000500EF01FF28
:1008EB00FFFFFF0100040201000800EF01FFFFFF03
:1008FB00FF0100040202000900EF01FFFFFFFF01EF
:10090B00000804010000012B003A00EF01FFFFFF7C
:0D091B00FF01000804020000012B003B005A
:100B1F00160B0000000000000000000000000000A5
:0F0B2F0000000000000000000208000101220089
:0F0A7700D2917FFA7E00120A86C2917FFA7E002A
:100A8600D3EF9400EE940040147D6E7C00ED1D7053
:0D0A9600011CED4C70F7EF1F70E61E80E3B1
:010AA3002230
:090B3F00D2917F647E00120A8647
:0F0B4800758CFE758A4875890175A882D28C223A
:03000B00020AA442
:100AA400C0E0C0F0C0D0758CFE758A48E50AC395D5
:100AB400215004C2908002D290050AE50A75F028FC
:0B0AC4008485F00AD0D0D0F0D0E032E2
:100B570075985053890F758920758780758DFF7536
:070B67008BFFC2ABD28E220E
:060AF9008B2A8A2B892CD8
:100AFF00E4FFEFC39D5018AB2AAA2BA92C8F827548
:0F0B0F00830012088CF5993099FDC2990F80E38D
:010B1E0022B4
:0809BA007B017A0079007D0C3D
:0809C2008B2A8A2B892C8D2D54
:1009CA00E4FF7EC8EFC3952D502B209813AD061E69
:1009DA00ED600DEED394017480948050ED7FFF2278
:1009EA00AB2AAA2BA92C8F82758300E5991208B924
:0709FA00C2980F80CF7F00BF
:010A010022D2
:100ACF007BFF7A0879DB7D0C120AF93098FD120949
:100ADF00BAEF60037FFE22900009E0700A90000BCE
:090AEF00E0640A7002FF227FFEA0
:010AF80022DB
:100928007524FF7525087526E87527FF752808754D
:1009380029F6EF64017008AB24AA25A9268006AB26
:1009480027AA28A9297D0D120AF93098FD1209BA9B
:10095800EF60037FFE22900009E0700A90000BE030
:08096800640A7002FF227FFE09
:010970002264
:100971007524FF7525097526047527FF75280975E6
:100981002916EF64017008AB24AA25A9268006ABBD
:1009910027AA28A9297D11120AF93098FD7B017A2D
:1009A1000079007D101209C2EF60037FFE229000E2
:0809B10009E07002FF227FFE45
:0109B900221B
:100B6E00120B3FE4F50A7521027FE87E03120A8616
:060B7E00752201C2912264
:100A4400120B3FE4F50A7521057FE87E03120A863E
:100A540030A0067FC47E0980047FDC7E05120A86EE
:100A6400120B48E4F50A7521027FE87E03120A8618
:030A7400C291220A
:0A0A0200D2A0120B6E120A44C29833
:100A0C00120B57120ACF8F23EF3395E04F70F17F03
:100A1C00011209288F23EF3395E04F70E37F011209
:100A2C0009718F23EF3395E04F7005120A4480D083
:060A3C00120A77120A778E
:020A420080C86A
:10080C00020A02E493A3F8E493A34003F68001F2F6
:10081C0008DFF48029E493A3F85407240CC8C333ED
:10082C00C4540F4420C8834004F456800146F6DFBC
:10083C00E4800B0102040810204080900B1FE47E22
:10084C00019360BCA3FF543F30E509541FFEE493B1
:10085C00A360010ECF54C025E060A840B8E493A378
:10086C00FAE493A3F8E493A3C8C582C8CAC583CAA3
:10087C00F0A3C8C582C8CAC583CADFE9DEE780BE5B
:010B3E0000B6
:10088C00BB010CE58229F582E5833AF583E0225021
:10089C0006E92582F8E622BBFE06E92582F8E2226B
:0D08AC00E58229F582E5833AF583E4932285
:1008B900F8BB010DE58229F582E5833AF583E8F075
:1008C900225006E92582C8F622BBFE05E92582C821
:0208D900F22209
:00000001FF
